S0110000756172745F746573742E7372656338
S31500000000700B0020011000002D0E0000FD0F0000F7
S31500000010FD0F0000FD0F0000FD0F0000FD0F0000AA
S31500000020000000000000000000000000FD0F0000BE
S31500000030FD0F000000000000FD0F0000FD0F000096
S315000000409907000009070000290800007108000050
S31500000050000000000000000000000000000000009A
S31500000060000000000000000000000000000000008A
S31500000070000000000000000000000000000000007A
S31500000080000000000000000000000000000000006A
S31500000090000000000000000000000000000000005A
S315000000A0000000000000000000000000000000004A
S315000000B0000000000000000000000000000000003A
S315000000C0000000000000000000000000000000002A
S315000000D0000000000000000000000000000000001A
S315000000E0000000000000000000000000000000000A
S315000000F000000000000000000000000000000000FA
S3150000010000000000000000000000000000000000E9
S3150000011000000000000000000000000000000000D9
S3150000012000000000000000000000000000000000C9
S3150000013000000000000000000000000000000000B9
S3150000014000000000000000000000000000000000A9
S315000001500000000000000000000000000000000099
S315000001600000000000000000000000000000000089
S315000001700000000000000000000000000000000079
S315000001800000000000000000000000000000000069
S315000001900000000000000000000000000000000059
S315000001A00000000000000000000000000000000049
S315000001B00000000000000000000000000000000039
S315000001C0FFFFFFFFFFFFFFFFFFFFFFFFFFFFFFFF39
S315000001D0FFFFFFFFFFFFFFFFFFFFFFFFFFFFFFFF29
S315000001E0FFFFFFFFFFFFFFFFFFFFFFFFFFFFFFFF19
S315000001F0FFFFFFFFFFFFFFFFFFFFFFFFFFFFFFFF09
S3150000020010B5054C237833B9044B13B1044800E00C
S3150000021000BF0123237010BD9000002000000000E5
S315000002204421000008B5034B1BB10349034800E015
S3150000023000BF08BD0000000094000020442100001B
S31500000240002330B50D4683B0084C8DF807300122E7
S3150000025020460DF1070100F059F89DF80730002BF4
S31500000260F5D001202B7003B030BD00BFB8000020D0
S315000002702DE9F043B2F1000983B015DD0D464FF0CC
S3150000028000080B4C0B4F01EB090615F9013B012247
S31500000290384601A9019300F03FF82378002BFCD0E3
S315000002A0AE4284F80080F0D1484603B0BDE8F08342
S315000002B0AC000020B800002000B50949094883B009
S315000002C000F070F8074C00F009FF034601222046B3
S315000002D00DF107018DF8073000F01EF8F3E700BFB7
S315000002E0601D0000B8000020022800D07047024BB5
S315000002F00248596800F060BC541D0000B0000020A0
S3150000030008B5FFF7D9FF002008BD00BF034600204F
S31500000310C3E90512704700BF10B4046AA37803F05E
S315000003207B03A370837803F00303D21A0B440261A4
S31500000330A278C360837842F0800203F00303022BA5
S31500000340A27005D00B780020E3705DF8044B70476F
S315000003500B88002043F47E43E3815DF8044B70472D
S31500000360F0B5846A85B005460F4694466E46B4B12C
S3150000037094E80F0086E80F00EB6920461B7884F8A6
S3150000038004C02360EB6AC4E902736B6A9847AC6ADF
S315000003901CB196E80F0084E80F0005B0F0BD3446A6
S315000003A0EAE700BF0022F0B501240B78027003F5DE
S315000003B0800303F58C531B0203624B698D6943620C
S315000003C08378C16164F301038262C56283704B78EE
S315000003D023B90222837862F301038370012491F921
S315000003E00B50C44A6B0905F01F07203304FA07F7C0
S315000003F08E7A42F82370BFF34F8FBFF36F8FBE4BD9
S3150000040005F1C00753F827C06FF3104C43F827C017
S3150000041053F82770B94F360102EB050CF6B28CF88B
S31500000420006347F8250091F905500E794FEA551CEF
S3150000043005F01F0E0CF1200C04FA0EFE42F82CE01B
S31500000440BFF34F8FBFF36F8F05F1C00C53F82CE04D
S315000004506FF3104E43F82CE053F82CC0360102EB34
S31500000460050CF6B28CF8006347F8250091F90750A1
S315000004708E794FEA551C05F01F0E0CF1200C04FA7C
S315000004800EFE42F82CE0BFF34F8FBFF36F8F05F1DE
S31500000490C00C53F82CE06FF3104E43F82CE053F8E1
S315000004A02CC0360102EB050CF6B28CF8006347F857
S315000004B0250091F909500E7A4FEA551C05F01F0EDA
S315000004C00CF1200C04FA0EFE42F82CE0BFF34F8F1D
S315000004D0BFF36F8F05F1C00C53F82CE06FF3104E8D
S315000004E043F82CE053F82C303301DBB22A4482F86F
S315000004F0003347F82500EFF3108584F310884FF09A
S3150000050000447F4B0E785A68F44022EA04025A608F
S315000005105B6885F31088002240F2F934036A40F2E2
S31500000520F9359A701A715A729A72DA725A830A787F
S3150000053024FA02F2D60744BF4022DA740622CC69B6
S315000005401A770A784E78D540ED078F78CA7848BF73
S315000005504FF478414FEAC20248BF9982032E42EA1D
S31500000560071200F0C280002E14BFF221E221D2B29F
S315000005701A709971227B082A0EBF0A22520002F0D5
S3150000058002025A736278A178D201490101F0200172
S31500000590D2B20A430021197294F800C0ACF10201EC
S315000005A0012940F29880D2B2DA7162689178557862
S315000005B05970197865F301011970D1781278997418
S315000005C0D97902F05C0201F0A3010A43DA71002234
S315000005D0C16902618261C260426191F90550464B70
S315000005E005F1C00153F8216062F3104643F821601B
S315000005F053F82110BFF35F8F01266909890005F0C2
S315000006001F0501F1604101F5614106FA05F5C1F8E2
S3150000061080510D60C16991F90B5005F1C00153F885
S31500000620217062F3104743F8217053F82110BFF38D
S315000006305F8F6909890005F01F0501F1604106FA1F
S3150000064005F501F56141C1F880510D60C16991F967
S3150000065007E00EF1C00153F8215062F3104543F84C
S31500000660215053F82110BFF35F8F4FEA5E118900C6
S315000006700EF01F0E01F1604106FA0EF501F561411B
S31500000680C1F880510D60C16991F9091001F1C005E9
S3150000069053F8257062F3104743F8257053F8253058
S315000006A0BFF35F8F4B099B0001F01F0103F160430D
S315000006B08E4003F56143C3F880611E60036A0CF047
S315000006C0030C4CF0700C618983F802C00D4B01815C
S315000006D043601046F0BDFF21BCF1020F08BF42F097
S315000006E01002D2B25970DA7171E7F22142F040027B
S315000006F03DE700BF00E100E0006000402C01002063
S31500000700004008405549435330B4EFF30383103B90
S315000007101F4A5BB203F1C00152F821006FF310408B
S3150000072042F8210052F821201A4A52F82300C369E0
S315000007301B691BB103691BB130BC704703697BB9E8
S31500000740D0E908240021937803F07F0343F00403E3
S315000007509370C160002CEFD030BC8022FFF700BE42
S31500000760827802F003010229C1680BD0046A91F86D
S3150000077000C084F803C002F003029B1A0A44C0E9D1
S315000007800323D8E70C88056A44F47E44EC81F2E73B
S31500000790006000402C01002010B582B0EFF3038307
S315000007A0103B1F4A5BB203F1C00152F821006FF300
S315000007B0104042F8210052F821201A4A52F82340EC
S315000007C0A27802F00303022B236A0CBF198A597917
S315000007D0A3690CBFC1F30801C9B2019143B9636AA9
S315000007E0B3B10422204602B0BDE81040FFF7B8BD01
S315000007F002F0030201A9606900F082FCD4E9052138
S31500000800A37803F003031A44C91AC4E9052109B100
S3150000081002B010BD636A002BFAD00122E2E700BFE6
S31500000820006000402C01002010B5EFF303830E4A50
S31500000830103B5CB252F82400D0E90821937803F00B
S315000008407B03937019B102220021FFF789FD074A45
S3150000085004F1C00352F823106FF3104142F823103D
S3150000086052F8233010BD00BF2C010020006000406C
S3150000087010B5EFF303831A4A103B5CB252F824001A
S31500000880837803F00303022B036A0CBF198A597994
S3150000089093F804C00CBFC1F30801C9B21CF0100FD5
S315000008A00CF0380206D093F81CC01CF0010F08BFEC
S315000008B042F0400293F804C00CF0C70C83F804C061
S315000008C0436A0BB1FFF74CFD064A04F1C00352F828
S315000008D023106FF3104142F8231052F8233010BD55
S315000008E02C010020006000400022034610461A60DA
S315000008F0704700BF0B0A10B41B01064C53FA81F176
S3150000090054F821300020C3F340035DF8044B137004
S31500000910704700BF00080840090A490101F18041FB
S3150000092001F500214B68002013807047090A490130
S3150000093023EA020C01F180411A4001F5002142EA46
S315000009400C4200208A6070470123C8B283404AB92E
S315000009501A040B0A5B0103F1804303F50023002010
S315000009609A6070479AB2F4E7090A490101F1804199
S3150000097001F5002110B40C6802EA030C4CEA040CE1
S3150000098062EA030202EA0C0200205DF8044B0A60E8
S31500000990704700BF090A490101F1804101F50021B4
S315000009A04B680020C3F30F4313807047012310B434
S315000009B04FEA112C4FEA4C1C0CF1804C0CF5002C24
S315000009C0DCF80440C9B203FA01F18BB201EA144122
S315000009D0C91AB1FA81F1490900205DF8044B11707A
S315000009E0704700BF090A490123EA020C01F1804160
S315000009F01A4001F5002142EA0C420020CA60704705
S31500000A00012A14D04FF480300B0A5B0103F18043B6
S31500000A1003F5002310B4CAB2DC6800FA02F22243DE
S31500000A20120C120400205DF8044BDA6070470B0AC2
S31500000A305B0103F1804303F50023D868C9B28A40FD
S31500000A40024392B20020DA60704700BF38B50488CE
S31500000A50002C4CD00021436840F20245043303EBDE
S31500000A60C40040F2034C40F2044E0C460FE06245CF
S31500000A702FD153F8042C02F0B852B2F1807F14BF84
S31500000A8041F0020144F002040833834210D01A8870
S31500000A90AA42ECD153F8042C083302F0B852B2F152
S31500000AA0807F14BF41F0010144F001048342EED17E
S31500000AB0C943CDB2012000F055FA0E4B012093F840
S31500000AC0BB2414432C4083F8BB44BDE8384000F0F7
S31500000AD019BA7245D8D153F8042C02F0B852B2F1C3
S31500000AE0807F0CBF44F0040441F00401CCE7FF25ED
S31500000AF0E0E700BF00E00140F8B50446FFF7A6FFB7
S31500000B00EFF31082012383F31088284E33681BB954
S31500000B102749CB704023CB7033680133336082F3AF
S31500000B20108823887BB3626803F1FF3E1FFA8EFEAE
S31500000B3002F108011F4C01EBCE0E08E0D2B21B01F8
S31500000B4013448E450A4644F823001CD00831106829
S31500000B50928810F4803F4FEA1223EFD0130AD2B2E4
S31500000B6002EB031C54F82C701B01134420F480354F
S31500000B706FF310478E4544F82C700A4644F82C5003
S31500000B8044F82300E2D1EFF31082012383F31088A7
S31500000B90336813B13368013B336033681BB9802077
S31500000BA00349CB70C87082F31088F8BD2801002075
S31500000BB0000D08400008084008B5034B03600846CE
S31500000BC0FFF79AFF002008BD54524F5008B508465B
S31500000BD0FFF792FF002008BD70B5012684B002AB76
S31500000BE068460C4615460193ADF80060ADF80C104A
S31500000BF00292FFF72BFFEFF3108286F310881D4950
S31500000C000B681BB940261C48C370C6700B680133BD
S31500000C100B6082F31088EA034FEA1423E4B219D476
S31500000C201B01164A234442F82350EFF31082012396
S31500000C3083F310880B6813B10B68013B0B600B68DC
S31500000C401BB980200C49CB70C87082F31088002035
S31500000C5004B070BD094A04EB031052F820601B0172
S31500000C606FF3104642F8206025F4803642F8206083
S31500000C70D7E700BF28010020000D08400008084003
S31500000C80064B074993F826001A6A51F82030C2F33A
S31500000C9002620449D3400B60704700BF00E0014088
S31500000CA070000020B8020020F8B54AF20350012374
S31500000CB03749384AA1F8FE03A2F80431B2F80431E4
S31500000CC09BB2002BFAD101214FF400454FF0090CDD
S31500000CD0314CDFF8DCE0314EC4F804E0DFF8D4E054
S31500000CE02B48C4F80CE02E4FA2F800112D4AB16033
S31500000CF031606261276090F82620A5602561056A4B
S31500000D0054F82220C5F30265EA40274D2A6080F890
S31500000D10133480F8A2C090F8803493B300231C49A2
S31500000D2081F8813481F8803481F8323091F83C3092
S31500000D301A07FBD543F202100023154A088581F8ED
S31500000D402A3092F83C309B06FBD503200523114937
S31500000D5081F81C0115490120116282F8263092F8AB
S31500000D602630116A54F82330C1F30261CB402B6060
S31500000D704FF4254382F8300082F85200A2F8FE3381
S31500000D80F8BD80F8801440F2C44000F01BF8C5E7B7
S31500000D9000E0014000C001407000002000700040EB
S31500000DA0002D310100C2EB0BB802002021120120F8
S31500000DB000127A0000366E01A0F101000028FBD176
S31500000DC0704700BF10B54FF47A72164C164B246864
S31500000DD04FF0000EB3FBF4FC4FF0FF3300FB01F1C4
S31500000DE0A1FB020483427EEB040407D3B0FBFCF0B4
S31500000DF0800880B1BDE81040FFF7DEBF4FEA8C0CDB
S31500000E00B1FBFCF1A1FB02128B427EEB020203D383
S31500000E1008460028EED110BD1846BDE81040FFF781
S31500000E20CBBF00BFB802002000CA9A3B70B50024B1
S31500000E300A4B0B4EB3F84051ADB225FA04F3DB076B
S31500000E40E0B203D556F8243003B198470134102C8C
S31500000E50F3D1024BA3F8305170BD00BF00600040D3
S31500000E60E800002030B56FF0FF0585B0032000F0E4
S31500000E7079F84FF0FF311F4C1F4822468564002346
S31500000E800125CDE90111039104F1C00E32F8020FDC
S31500000E90590960B104A800EB810151F80C0C03F06C
S31500000EA01F0C05FA0CFC20EA0C0041F80C0C7245EC
S31500000EB003F10103EAD10199104B0F4A0320116790
S31500000EC0C3F8801202995167C3F884120399916797
S31500000ED0C3F8881200F016F80023094803F1C0028F
S31500000EE034F8021F0133602B40F82210F6D105B00A
S31500000EF030BD00BFE21F00000080004000E100E0BE
S31500000F0000600040EFF31081012383F31088124B39
S31500000F1033F8102092B22AB133F81020013A92B277
S31500000F2023F8102033F810309BB293B90B4A10B453
S31500000F30B2F8FE330A4C9BB234F8100043F4254352
S31500000F4023EA0003A2F8FE3381F310885DF8044B10
S31500000F50704781F310887047AC02002000E0014022
S31500000F60D820000030B4EFF31081012383F31088FA
S31500000F700E4A32F810309BB26BB90D4C0D4DB4F8D9
S31500000F80FE3335F810C09BB243EA0C0343F4254305
S31500000F909BB2A4F8FE3332F8103001339BB222F82C
S31500000FA0103081F3108830BC704700BFAC020020BF
S31500000FB000E00140D82000000D4908B50A68034644
S31500000FC04AB103330B4823F003031344834206D884
S31500000FD010460B6008BD084802460860F1E700F0BD
S31500000FE077F80C234FF0FF320360104608BD00BFB0
S31500000FF0B4020020700700207003002000BE704776
S3150000100008B500F003F8FFF77BF9FEE74FF470022E
S3150000101070B5244B244CC3F8882000209C60FFF751
S3150000102063F9FFF741FE0120FFF75EF92368A3F598
S31500001030806383F30A881D481D4A0021121A00F0B6
S315000010406CF81C481C4A1D49121A00F059F81C4D30
S315000010501C4B5B1B002B07DD00249E1055F8043B40
S3150000106001349847A642F9DCFFF70AFE0320FFF792
S3150000107079FF00234FF6FF70134903F1080201338D
S31500001080092B21F81200F8D10320FFF73BFF0220BD
S31500001090FFF72AF9FFF7E6FEBDE87040002000F0F2
S315000010A015B800BF00ED00E0000000009000002031
S315000010B06C03002000000020700000204821000082
S315000010C0680000206C000020000D0840704700BF3B
S315000010D0014B1868704700BF04000020074B10B58D
S315000010E01C6824B1A36913B9204600F077F861683B
S315000010F02046BDE8104000F02BB900BF04000020D8
S315000011000A44431E914200D1704710B511F8014BB5
S31500001110914203F8014FF9D110BD024403469342B0
S3150000112000D1704703F8011BF9E7FFFF002310B554
S3150000113004468360818119464366C2810822836121
S31500001140C0E90033C0E904335C30FFF7E6FF054B26
S3150000115024626362044BA362044BE362044B236381
S3150000116010BD00BF791500009B150000D3150000C7
S31500001170F7150000014900F0CCB800BF4D1700007C
S3150000118070B568224D1E0E46554305F1740100F0F8
S3150000119043F9044640B1002105F16802C0E9001692
S315000011A00C30A060FFF7B9FF204670BD014800F083
S315000011B010B900BFBD020020014800F00BB900BF06
S315000011C0BD020020014800F004B900BFBE020020A5
S315000011D0014800F0FFB800BFBE02002010B504466B
S315000011E0FFF7F0FFA3691BB1BDE81040FFF7F0BFA2
S315000011F0C4E9123323652046124B134A1B68A262C8
S31500001200A34204BF0123A36100F020F860602046DA
S3150000121000F01CF8A060204600F018F80022042117
S31500001220E0606068FFF782FF01220921A068FFF7EE
S315000012307DFF02221221E068FFF778FF0123A361F8
S31500001240D2E700BFE020000075110000F8B50746A0
S31500001250FFF7ACFF1E4B1E68B36913B93046FFF7A4
S31500001260BDFF4836D6E90134013B03D533680BB3DD
S315000012703668F7E7B4F90C50D5B9164B04F15800A7
S315000012806566E36000F0A4F8FFF796FF082229469A
S3150000129004F15C002560A561C4E90155C4E9045563
S315000012A0FFF73BFFC4E90D55C4E912552046F8BDCA
S315000012B06834D9E704213846FFF762FF04463060F8
S315000012C00028D5D1FFF778FF0C233B60EEE700BF7F
S315000012D0E02000000100FFFF2DE9F0410F4600F17C
S315000012E048040026D4E90185B8F1010805D524682B
S315000012F0002CF7D13046BDE8F081AB89012B06D929
S31500001300B5F90E30013302D02846B8470643683592
S31500001310EAE72DE9F8430646884600F14804002727
S31500001320D4E90195B9F1010905D52468002CF7D156
S315000013303846BDE8F883AB89012B07D9B5F90E30DD
S31500001340013303D029463046C04707436835E9E7ED
S3150000135038B50C46054618B183690BB9FFF73EFF51
S31500001360184B9C421ED16C68636ED80705D4A389BE
S31500001370990502D4A06D00F02CF86368013B002BA0
S31500001380636019DA2846214600F0BAF80546636E0E
S31500001390DA0705D4A3899B0502D4A06D00F01AF8DC
S315000013A0284638BD084B9C4201D1AC68DCE7074BA8
S315000013B09C4208BFEC68D7E723685A1C22601D7858
S315000013C0E5E700BF0421000024210000E42000001E
S315000013D0704770477047FFFF70B50E4E0C460546C6
S315000013E0316811B900F0B8F830602146284600F09F
S315000013F0B3F8431C0AD0C41C24F00304A04207D04F
S31500001400211A284600F0A8F8013001D14FF0FF3428
S31500001410204670BDC40200202DE9F041CD1C0746D0
S3150000142025F0030508350C2D38BF0C25002D01DBF2
S31500001430A94205D90C2300263B603046BDE8F08161
S315000014402E4E00F0E3F933681C4634BB2946384675
S31500001450FFF7C2FF431C04464DD134682646002ED2
S3150000146040D123683146384604EB030800F074F88F
S3150000147080453AD12168033538466D1A25F00305B3
S3150000148008350C2D38BF0C252946FFF7A5FF01307E
S315000014902BD023682B4423600EE02268521B1ED4F7
S315000014A00B2A16D96119A342256018BF59606368D3
S315000014B008BF316062514B6004F10B06384600F0FC
S315000014C0ABF9231D26F00706F21AB6D09B1BA350D4
S315000014D0B3E76268A3420CBF32605A60ECE723466A
S315000014E06468B2E734467668B9E70C2338463B6051
S315000014F000F092F9A1E72560DEE700BFC0020020F8
S3150000150038B50C46054618B183690BB9FFF766FE78
S315000015100E4B9C420DD16C682146284600F0EAF934
S3150000152088B96368013B636023685A1C2260187897
S3150000153038BD074B9C4201D1AC68EDE7054B9C4298
S3150000154008BFEC68E8E74FF0FF30F1E70421000040
S3150000155024210000E420000038B50023054D044690
S3150000156008462B60FFF728FD431C02D12B6803B108
S31500001570236038BDC802002010B50C46B1F90E1024
S3150000158000F09CF90028ABBF636DA3891B1823F4F8
S315000015908053ACBF6365A38110BD2DE9F0411F46A2
S315000015A08B8905460C46DB05164605D50223002227
S315000015B0B1F90E1000F018F9A3893246B4F90E10ED
S315000015C0284623F48053A3813B46BDE8F04100F052
S315000015D017B810B50C46B1F90E1000F005F9431C0A
S315000015E0A38915BF606523F4805343F48053A38118
S315000015F018BFA38110BDB1F90E1000F013B8FFFF9C
S3150000160038B50446064D0846114600222A601A4699
S31500001610FEF72EFE431C02D12B6803B1236038BDB2
S31500001620C802002038B50023054D044608462B6045
S3150000163000F0EAFA431C02D12B6803B1236038BDDF
S31500001640C80200208A892DE9F041054610070C469C
S3150000165058D44B68002B05DC0B6C002B02DC0020F9
S31500001660BDE8F081E66A002EF9D0002312F480521C
S315000016702F682B6032D0606DA3895A0705D5636841
S31500001680C01A636B0BB1236CC01A00230246E66ACC
S315000016902846216AB047431CA38906D129681D291B
S315000016A02CD8294ACA40D60728D50022D904626018
S315000016B02269226004D5421C01D12B6803B96065FA
S315000016C0616B2F600029CAD004F14403994202D00D
S315000016D0284600F0A7F800206063C1E7216A0123CD
S315000016E02846B047411CC7D12B68002BC4D01D2B00
S315000016F001D0162B01D12F60B1E7A38943F0400337
S31500001700A381ADE70F69002FA9D093070E680F607C
S315000017100CBF4B690023A6EB07088B60B8F1000FDE
S315000017209DDD43463A46216A2846A66AB047002808
S3150000173006DCA3894FF0FF3043F04003A3818FE717
S315000017400744A8EB0008E9E70100402038B50B691B
S3150000175005460C4613B90025284638BD18B18369DD
S315000017600BB9FFF73BFD144B9C421BD16C68B4F9D7
S315000017700C30002BEFD0626ED00704D4990502D44A
S31500001780A06DFFF726FE28462146FFF75BFF636E36
S315000017900546DA07E0D4A3899B05DDD4A06DFFF7E3
S315000017A019FED9E7054B9C4201D1AC68DFE7044B33
S315000017B09C4208BFEC68DAE70421000024210000FF
S315000017C0E4200000014620B9044B05491868FFF7DC
S315000017D0A0BD044B1868FFF7B9BF00BFE0200000AA
S315000017E04D1700000400002038B50446064D084693
S315000017F0114600222A601A4600F0F7F9431C02D16E
S315000018002B6803B1236038BDC80200200148FFF7EA
S31500001810E0BD00BFBC0200200148FFF7DBBD00BFF2
S31500001820BC02002037B5002943D051F8043C0C1FF8
S315000018300190002BB8BFE418FFF7E8FF1E4A019895
S31500001840136833B96360146003B0BDE83040FFF736
S31500001850E3BFA34208D9256861198B4201BF196805
S315000018605B6849192160EDE71A465B680BB1A34234
S31500001870FAD911685518A5420BD124682144541889
S315000018801160A342E0D11C685B682144536011607B
S31500001890DAE702D90C230360D6E7256861198B4283
S315000018A002BF19685B684919636008BF216054600C
S315000018B0CAE703B030BD00BFC002002038B50446F9
S315000018C0064D0846114600222A601A46FEF7B8FC65
S315000018D0431C02D12B6803B1236038BDC802002027
S315000018E0838903F00903092B01D1FFF76BBF0020A1
S315000018F07047FFFFF8B50C46054618B183690BB96A
S31500001900FFF76CFC3B4B9C420AD16C680023B4F990
S315000019100C206360A3899E060CD54FF0FF3066E06D
S31500001920354B9C4201D1AC68F0E7344B9C4208BF72
S31500001930EC68EBE7580748D4D90605D409232B6091
S3150000194042F04003A381E8E71A070BD52146284653
S31500001950FFF7FCFE0028E0D1A389A06023F008036E
S31500001960A061A381A38943F00403A38123691BB962
S315000019702146284600F06EF8A689B4F90C70B30724
S315000019800FD0012306F009061D49A3811D4B1868D7
S31500001990FFF7A2FC092EA78103D121462846FFF7AF
S315000019A051FE22692846666A6369216A2260B04749
S315000019B0002860601CDCB4F90C3017BF002243F02D
S315000019C0200343F040036260BCE7616B0029CDD081
S315000019D004F14403994202D02846FFF723FF002072
S315000019E0236C60636360002BC0D0E36B2360F8BD9B
S315000019F00020FCE70421000024210000E420000070
S31500001A00E1180000E020000070B50E46B1F90E1096
S31500001A1096B0144600291D4608DAB6F90C300022A5
S31500001A202A601A0610D44FF480630EE06A4600F06E
S31500001A3051F80028F1DB019A02F47042A2F5005336
S31500001A405A425A412A60EEE740230020236016B02E
S31500001A5070BDFFFF8B8973B59D0706460C4607D5FB
S31500001A6004F14703236023610123636102B070BD63
S31500001A7001AB6A46FFF7C8FF009905463046FFF7F7
S31500001A80CBFC48B9B4F90C309A05EFD423F0030324
S31500001A9043F00203A381E3E70D4BB362A389206001
S31500001AA043F080032061A381009B6361019B5BB1CE
S31500001AB0B4F90E10304600F01FF828B1A38923F0C0
S31500001AC0030343F00103A381A0890543A581CDE764
S31500001AD07511000038B50023064D04460846114628
S31500001AE02B6000F0D8F8431C02D12B6803B12360A9
S31500001AF038BD00BFC802002038B50023054D044696
S31500001B0008462B6000F0D5F8431C02D12B6803B1C0
S31500001B10236038BDC80200200A4B10B50446186879
S31500001B2018B183690BB9FFF759FB132C07D8064880
S31500001B3050F83420013202D000EBC40010BD002062
S31500001B40FCE700BF04000020CC020020F8B50446E4
S31500001B501326FFF7BDFA0027054630463946ABBEC9
S31500001B60064620462E60F8BD431C01D1FFF7EEBFA6
S31500001B707047F7B50C461646FFF7CEFF054640B947
S31500001B80FFF7A6FA092303604FF0FF34204603B09F
S31500001B90F0BD022E03D9FFF79BFA1623F3E7012EB9
S31500001BA012D14368E418F6D42B680A266F46CDE9AD
S31500001BB0003430463946ABBE06463046FFF7D4FF02
S31500001BC00028E1DB6C60E1E7022EEDD103680C260C
S31500001BD06F46009330463946ABBE06463046FFF7A1
S31500001BE0C3FF431CD0D00444DEE7FFF7C2BF37B5BE
S31500001BF0022401AD019020462946ABBE044620468C
S31500001C00FFF7B2FF03B030BD38B50546FFF784FFD6
S31500001C10044630B9FFF75CFA092303604FF0FF3042
S31500001C2038BD013D012D09D8094B9A681B699A42B6
S31500001C3004D14FF0FF3303600020F1E72068FFF77F
S31500001C40D6FF0028ECD14FF0FF332360E8E700BF52
S31500001C50CC02002070B50C46FFF75EFF054630B992
S31500001C60FFF736FA092303604FF0FF3070BD636853
S31500001C700C2643F4005363604FF48063A36430463C
S31500001C802946ABBE05462846FFF76EFF431C1CBF20
S31500001C9020610020EAE70B465822002110B50446D1
S31500001CA01846FFF73AFA01462046BDE81040FFF70E
S31500001CB0D1BF70B5FFF730FF0925044620B9FFF7FD
S31500001CC007FA0560204670BD28462146ABBE04468D
S31500001CD0012CF7D0FFF7FCF9002405461326304601
S31500001CE02146ABBE06462E60ECE7FFFF4275696CE7
S31500001CF07420776974682052656E6573617320413C
S31500001D006476616E63656420466C657869626C65AD
S31500001D1020536F667477617265205061636B6167EB
S31500001D20652076657273696F6E20342E312E300011
S31500001D30342E312E3000000000000104F8B500BF3B
S31500001D40F8BC08BC9E467047F8B500BFF8BC08BC96
S31500001D509E467047B0000020941D0000A42000009D
S31500001D60000200000C000C010C020C030000000035
S31500001D70000000000000000000000000801D0000C0
S31500001D8000010000000000200F00FFFF000000001F
S31500001D90FFFF0000490000009C1D000000800000BD
S31500001DA0000000000080000001000000004000006C
S31500001DB00200000000800000030000000400000094
S31500001DC00400000000400000050000000040000084
S31500001DD00600000000800000070000001040000020
S31500001DE00800000004000000090000000080000058
S31500001DF00E000000008000000F000000000C01042F
S31500001E0000010000000C01040101000000000100B7
S31500001E1008010000000001000901000000000100A7
S31500001E200A010000040000000B010000040000008D
S31500001E300F0100000000010602020000000001067A
S31500001E400302000000000106040200000000010673
S31500001E50050200000000010000030000000001066A
S31500001E60010300000400000003030000040000005A
S31500001E7004030000000C011105030000000C011111
S31500001E8006030000000C011107030000000C0111FD
S31500001E9008030000000C011109030000000C0111E9
S31500001EA00A030000040000000B0300000400000009
S31500001EB00C030000040000000D03000004000000F5
S31500001EC000040000000C011701040000000C0117BB
S31500001ED002040000050C00000304000004000000DA
S31500001EE004040000000C011705040000000C011793
S31500001EF006040000000001130704000000000103AF
S31500001F00080400001040000009040000000001065B
S31500001F100A040000000001060B0400000000010690
S31500001F200C040000000001060D0400001040000033
S31500001F300E040000040000000F040000000001135E
S31500001F400005000000000113010500004000010427
S31500001F500505000040000104060500000004010715
S31500001F600B050000000401070C050000040000003A
S31500001F700B060000040000000C060000000001052E
S31500001F800D060000000001050E060000000C0117FA
S31500001F9000070000000C011701070000000C0117E4
S31500001FA002070000000C011703070000000C0117D0
S31500001FB004070000000C01170507000004000000DC
S31500001FC008070000040000000907000004000000E4
S31500001FD00A070000040000000C07000004000000CF
S31500001FE00D070000800181018201830100000000CD
S31500001FF000000000000000000000000000000000DB
S3150000200000000000000000000000000000000000CA
S3150000201000000000000000000000000000000000BA
S3150000202000000000000000000000000000000000AA
S31500002030000000000000000000000000000000009A
S31500002040000000000000000000000000000000008A
S31500002050000000000000000000000000000000007A
S31500002060000000000000000000000000000000006A
S31500002070000000000000000000000000000000005A
S31500002080000000000000000000000000000000004A
S31500002090000000000000000000000000000000003A
S315000020A000000000B90B0000E9080000CD0B00009D
S315000020B0D90B0000AD090000010A0000F508000078
S315000020C0490900006909000095090000E5090000BA
S315000020D0190900002D090000010002000800100087
S315000020E008000020000000000000000000000000C2
S315000020F000000000000000000000000000000000DA
S3150000210000000000000000000000000000000000C9
S3150000211000000000000000000000000000000000B9
S3150000212000000000000000000000000000000000A9
S315000021300000000000000000000000000000000099
S30D00002140000000000000000091
S3150000214840003500080000200000000004210000BF
S3150000215824210000E4200000000000000000000028
S315000021680000000000000000000000000000000061
S315000021780000000000000000000000000000000051
S315000021880000000000000000000000000000000041
S315000021980000000000000000000000000000000031
S315000021A800000000000000002502000001020000F7
S3150100A100FFFFFFFFFFFFFFFFFFFFFFFFFFFFFFFF58
S3150100A110FFFFFFFFFFFFFFFFFFFFFFFFFFFFFFFF48
S3150100A120FFFFFFFFFFFFFFFFFFFFFFFFFFFFFFFF38
S30D0100A130FFFFFFFFFFFFFFFF28
S3150100A200FFFDFFFFFFFFFFFFFFFFFFFFFFFFFFFF59
S3150100A210FFFFFFFFFFFFFFFFFFFFFFFFFFFFFFFF47
S3150100A220FFFFFFFFFFFFFFFFFFFFFFFFFFFFFFFF37
S3150100A230FFFFFFFFFFFFFFFFFFFFFFFFFFFFFFFF27
S3150100A240FFFFFFFFFFFFFFFFFFFFFFFFFFFFFFFF17
S3150100A250FFFFFFFFFFFFFFFFFFFFFFFFFFFFFFFF07
S3150100A260FFFFFFFFFFFFFFFFFFFFFFFFFFFFFFFFF7
S3150100A270FFFFFFFFFFFFFFFFFFFFFFFFFFFFFFFFE7
S3150100A280F8F8FFFFFFFFFFFFFFFFFFFFFFFFFFFFE5
S3150100A290FFFFFFFFFFFFFFFFFFFFFFFFFFFFFFFFC7
S3150100A2A0FFFFFFFFFFFFFFFFFFFFFFFFFFFFFFFFB7
S3150100A2B0FFFFFFFFFFFFFFFFFFFFFFFFFFFFFFFFA7
S3150100A2C0FFFFFFFFFFFFFFFFFFFFFFFFFFFFFFFF97
S70500001001E9
